{
  "contractName": "Election",
  "abi": [
    {
      "constant": true,
      "inputs": [],
      "name": "candidatesCount",
      "outputs": [
        {
          "name": "",
          "type": "uint256"
        }
      ],
      "payable": false,
      "stateMutability": "view",
      "type": "function"
    },
    {
      "constant": true,
      "inputs": [
        {
          "name": "",
          "type": "uint256"
        }
      ],
      "name": "candidates",
      "outputs": [
        {
          "name": "id",
          "type": "uint256"
        },
        {
          "name": "name",
          "type": "string"
        },
        {
          "name": "voteCount",
          "type": "uint256"
        }
      ],
      "payable": false,
      "stateMutability": "view",
      "type": "function"
    },
    {
      "constant": true,
      "inputs": [],
      "name": "candidate",
      "outputs": [
        {
          "name": "",
          "type": "string"
        }
      ],
      "payable": false,
      "stateMutability": "view",
      "type": "function"
    },
    {
      "constant": true,
      "inputs": [
        {
          "name": "",
          "type": "address"
        }
      ],
      "name": "voters",
      "outputs": [
        {
          "name": "",
          "type": "bool"
        }
      ],
      "payable": false,
      "stateMutability": "view",
      "type": "function"
    },
    {
      "inputs": [],
      "payable": false,
      "stateMutability": "nonpayable",
      "type": "constructor"
    },
    {
      "anonymous": false,
      "inputs": [
        {
          "indexed": true,
          "name": "_candidateId",
          "type": "uint256"
        }
      ],
      "name": "votedEvent",
      "type": "event"
    }
  ],
  "bytecode": "0x608060405234801561001057600080fd5b5061005e6040805190810160405280600b81526020017f43616e64696461746520310000000000000000000000000000000000000000008152506100b0640100000000026401000000009004565b6100ab6040805190810160405280600b81526020017f43616e64696461746520320000000000000000000000000000000000000000008152506100b0640100000000026401000000009004565b6101d2565b6003600081548092919060010191905055506060604051908101604052806003548152602001828152602001600081525060026000600354815260200190815260200160002060008201518160000155602082015181600101908051906020019061011c92919061012d565b506040820151816002015590505050565b828054600181600116156101000203166002900490600052602060002090601f016020900481019282601f1061016e57805160ff191683800117855561019c565b8280016001018555821561019c579182015b8281111561019b578251825591602001919060010190610180565b5b5090506101a991906101ad565b5090565b6101cf91905b808211156101cb5760008160009055506001016101b3565b5090565b90565b6103e3806101e16000396000f300608060405260043610610062576000357c0100000000000000000000000000000000000000000000000000000000900463ffffffff1680632d35a8a2146100675780633477ee2e146100925780636c8381f814610146578063a3ec138d146101d6575b600080fd5b34801561007357600080fd5b5061007c610231565b6040518082815260200191505060405180910390f35b34801561009e57600080fd5b506100bd60048036038101908080359060200190929190505050610237565b6040518084815260200180602001838152602001828103825284818151815260200191508051906020019080838360005b838110156101095780820151818401526020810190506100ee565b50505050905090810190601f1680156101365780820380516001836020036101000a031916815260200191505b5094505050505060405180910390f35b34801561015257600080fd5b5061015b6102f9565b6040518080602001828103825283818151815260200191508051906020019080838360005b8381101561019b578082015181840152602081019050610180565b50505050905090810190601f1680156101c85780820380516001836020036101000a031916815260200191505b509250505060405180910390f35b3480156101e257600080fd5b50610217600480360381019080803573ffffffffffffffffffffffffffffffffffffffff169060200190929190505050610397565b604051808215151515815260200191505060405180910390f35b60035481565b6002602052806000526040600020600091509050806000015490806001018054600181600116156101000203166002900480601f0160208091040260200160405190810160405280929190818152602001828054600181600116156101000203166002900480156102e95780601f106102be576101008083540402835291602001916102e9565b820191906000526020600020905b8154815290600101906020018083116102cc57829003601f168201915b5050505050908060020154905083565b60008054600181600116156101000203166002900480601f01602080910402602001604051908101604052809291908181526020018280546001816001161561010002031660029004801561038f5780601f106103645761010080835404028352916020019161038f565b820191906000526020600020905b81548152906001019060200180831161037257829003601f168201915b505050505081565b60016020528060005260406000206000915054906101000a900460ff16815600a165627a7a7230582075cd74815577dd957b64920f9ac39f5c179874fcafd9114d34125084b5a29bc50029",
  "source": "//solium-disable linebreak-style\r\npragma solidity >=0.4.22 <0.6.0;\r\n\r\ncontract Election {\r\n    //Model a Candidate\r\n    struct Candidate{\r\n        uint id;\r\n        //unknown integer, value not yet assigned\r\n        string name;\r\n        uint voteCount;\r\n    }\r\n\r\n    string public candidate;\r\n    //state variable assigned getter function\r\n\r\n    // Store accounts that have voted\r\n    //---I don't know where this was added in the video??\r\n    mapping(address => bool) public voters;\r\n\r\n    //Store Candidates\r\n    //Fetch Candidates\r\n    mapping(uint => Candidate) public candidates;\r\n    //mapping is a key value pair, key is the uint and value is the Candidate, cannot know how many candidates or values in mapping (returns default value) so we use a counter cache\r\n    //Store Candidates Count\r\n    uint public candidatesCount;\r\n    //counter cache to fetch from mapping, state variable\r\n\r\n    // voted event\r\n    //---I don't know where this was added in the video??\r\n    event votedEvent(\r\n        uint indexed _candidateId\r\n    );\r\n\r\n    // Constructor\r\n    constructor() public{\r\n        addCandidate(\"Candidate 1\");\r\n        addCandidate(\"Candidate 2\");\r\n    }\r\n\r\n    function addCandidate(string memory _name) private {\r\n        candidatesCount++;\r\n        candidates[candidatesCount] = Candidate(candidatesCount, _name, 0);\r\n    }\r\n}",
  "sourcePath": "C:\\Users\\Sam\\Documents\\Projects\\election\\contracts\\Election.sol",
  "compiler": {
    "name": "solc",
    "version": "0.4.24+commit.e67f0147.Emscripten.clang"
  },
  "schemaVersion": "2.0.1",
  "updatedAt": "2018-12-05T16:14:00.502Z"
}